:020000040800F2
:10000000005000205D240008812200088D22000895
:1000100093220008992200089F2200080000000097
:10002000000000000000000000000000A522000801
:10003000B122000800000000BD220008C92200080B
:10004000A5240008A5240008A5240008A52400086C
:10005000A5240008A5240008A5240008A52400085C
:10006000A5240008A5240008A5240008A52400084C
:10007000A5240008A5240008A5240008A52400083C
:10008000A5240008A5240008A5240008A52400082C
:10009000D5220008A5240008A5240008A5240008EE
:1000A000A5240008A5240008A5240008A52400080C
:1000B000E9220008A5240008A5240008A5240008BA
:1000C000A5240008A5240008A5240008A5240008EC
:1000D000A5240008A5240008A5240008A5240008DC
:1000E000A5240008A5240008A5240008000000009D
:1000F0000000000000000000000000000000000000
:0C01000000000000000000005FF808F1A3
:1001100010B5054C237833B9044B13B10448AFF341
:1001200000800123237010BD500300200000000058
:1001300008B8000808B5034B1BB103490348AFF3E7
:10014000008008BD000000005403002008B800082B
:10015000034613F8012B002AFBD1181A0138704707
:1001600081F0004102E000BF83F0004330B54FEA68
:1001700041044FEA430594EA050F08BF90EA020FD5
:100180001FBF54EA000C55EA020C7FEA645C7FEA68
:10019000655C00F0E2804FEA5454D4EB5555B8BF8B
:1001A0006D420CDD2C4480EA020281EA030382EAFC
:1001B000000083EA010180EA020281EA0303362D8E
:1001C00088BF30BD11F0004F4FEA01314FF4801C61
:1001D0004CEA113102D0404261EB410113F0004F73
:1001E0004FEA03334CEA133302D0524263EB43032A
:1001F00094EA050F00F0A780A4F10104D5F1200EC8
:100200000DDB02FA0EFC22FA05F2801841F1000122
:1002100003FA0EF2801843FA05F359410EE0A5F1F6
:1002200020050EF1200E012A03FA0EFC28BF4CF027
:10023000020C43FA05F3C01851EBE37101F00045DD
:1002400007D54FF0000EDCF1000C7EEB00006EEBEA
:100250000101B1F5801F1BD3B1F5001F0CD3490874
:100260005FEA30004FEA3C0C04F101044FEA4452CB
:1002700012F5800F80F09A80BCF1004F08BF5FEA52
:10028000500C50F1000041EB045141EA050130BD32
:100290005FEA4C0C404141EB010111F4801FA4F1D5
:1002A0000104E9D191F0000F04BF01460020B1FA2A
:1002B00081F308BF2033A3F10B03B3F120020CDA62
:1002C0000C3208DD02F1140CC2F10C0201FA0CF040
:1002D00021FA02F10CE002F11402D8BFC2F1200CA5
:1002E00001FA02F120FA0CFCDCBF41EA0C0190405B
:1002F000E41AA2BF01EB0451294330BD6FEA0404A4
:100300001F3C1CDA0C340EDC04F11404C4F120028E
:1003100020FA04F001FA02F340EA030021FA04F3A0
:1003200045EA030130BDC4F10C04C4F1200220FAF7
:1003300002F001FA04F340EA0300294630BD21FA35
:1003400004F0294630BD94F0000F83F4801306BFFB
:1003500081F480110134013D4EE77FEA645C18BFEF
:100360007FEA655C29D094EA050F08BF90EA020F86
:1003700005D054EA000C04BF1946104630BD91EA7E
:10038000030F1EBF0021002030BD5FEA545C05D181
:100390004000494128BF41F0004130BD14F58004C0
:1003A0003CBF01F5801130BD01F0004545F0FE4134
:1003B00041F470014FF0000030BD7FEA645C1ABF69
:1003C000194610467FEA655C1CBF0B46024650EAA0
:1003D000013406BF52EA033591EA030F41F40021CC
:1003E00030BD00BF90F0000F04BF0021704730B552
:1003F0004FF4806404F132044FF000054FF0000127
:1004000050E700BF90F0000F04BF0021704730B5E7
:100410004FF4806404F1320410F0004548BF4042BC
:100420004FF000013EE700BF42004FEAE2014FEA11
:1004300031014FEA02701FBF12F07F4393F07F4FEC
:1004400081F06051704732F07F4208BF704793F0EF
:100450007F4F04BF41F40021704730B54FF4607402
:1004600001F0004521F000411CE700BF50EA010205
:1004700008BF704730B54FF000050AE050EA0102AE
:1004800008BF704730B511F0004502D5404261EB1E
:1004900041014FF4806404F132045FEA915C3FF45F
:1004A000D8AE4FF003025FEADC0C18BF03325FEAFC
:1004B000DC0C18BF033202EBDC02C2F1200300FAAD
:1004C00003FC20FA02F001FA03FE40EA0E0021FAD2
:1004D00002F11444BDE600BF70B54FF0FF0C4CF4C0
:1004E000E06C1CEA11541DBF1CEA135594EA0C0F72
:1004F00095EA0C0F00F0DEF82C4481EA030621EAAD
:100500004C5123EA4C5350EA013518BF52EA0335E7
:1005100041F4801143F4801338D0A0FB02CE4FF099
:100520000005E1FB02E506F00042E0FB03E54FF0C9
:100530000006E1FB03569CF0000F18BF4EF0010EC1
:10054000A4F1FF04B6F5007F64F5407404D25FEABD
:100550004E0E6D4146EB060642EAC62141EA555170
:100560004FEAC52040EA5E504FEACE2EB4F1FD0CB2
:1005700088BFBCF5E06F1ED8BEF1004F08BF5FEA30
:10058000500E50F1000041EB045170BD06F00046E2
:1005900046EA010140EA020081EA0301B4EB5C048F
:1005A000C2BFD4EB0C0541EA045170BD41F4801187
:1005B0004FF0000E013C00F3AB8014F1360FDEBFAC
:1005C000002001F0004170BDC4F10004203C35DA88
:1005D0000C341BDC04F11404C4F1200500FA05F30B
:1005E00020FA04F001FA05F240EA020001F00042AC
:1005F00021F0004110EBD37021FA04F642EB060122
:100600005EEA430E08BF20EAD37070BDC4F10C044B
:10061000C4F1200500FA04F320FA05F001FA04F20F
:1006200040EA020001F0004110EBD37041F10001FB
:100630005EEA430E08BF20EAD37070BDC4F1200506
:1006400000FA05F24EEA020E20FA04F301FA05F26E
:1006500043EA020321FA04F001F0004121FA04F216
:1006600020EA020000EBD3705EEA430E08BF20EAE6
:10067000D37070BD94F0000F0FD101F00046400020
:1006800041EB010111F4801F08BF013CF7D041EAA2
:10069000060195F0000F18BF704703F000465200A6
:1006A00043EB030313F4801F08BF013DF7D043EA77
:1006B0000603704794EA0C0F0CEA135518BF95EA2D
:1006C0000C0F0CD050EA410618BF52EA4306D1D1B4
:1006D00081EA030101F000414FF0000070BD50EAD3
:1006E000410606BF1046194652EA430619D094EA5D
:1006F0000C0F02D150EA013613D195EA0C0F05D147
:1007000052EA03361CBF104619460AD181EA03019A
:1007100001F0004141F0FE4141F470014FF0000052
:1007200070BD41F0FE4141F4780170BD70B54FF0ED
:10073000FF0C4CF4E06C1CEA11541DBF1CEA13556D
:1007400094EA0C0F95EA0C0F00F0A7F8A4EB05044F
:1007500081EA030E52EA03354FEA013100F0888046
:100760004FEA03334FF0805545EA131343EA12630F
:100770004FEA022245EA111545EA10654FEA0026C4
:100780000EF000419D4208BF964244F1FD0404F57D
:10079000407402D25B084FEA3202B61A65EB0305D9
:1007A0005B084FEA32024FF480104FF4002CB6EB96
:1007B000020E75EB030E22BFB61A754640EA0C0016
:1007C0005B084FEA3202B6EB020E75EB030E22BF56
:1007D000B61A754640EA5C005B084FEA3202B6EB97
:1007E000020E75EB030E22BFB61A754640EA9C0056
:1007F0005B084FEA3202B6EB020E75EB030E22BF26
:10080000B61A754640EADC0055EA060E18D04FEAE3
:10081000051545EA16754FEA06164FEAC30343EA83
:1008200052734FEAC2025FEA1C1CC0D111F4801F50
:100830000BD141EA00014FF000004FF0004CB6E749
:1008400011F4801F04BF01430020B4F1FD0C88BFE8
:10085000BCF5E06F3FF6AFAEB5EB030C04BFB6EBF3
:10086000020C5FEA500C50F1000041EB045170BDE6
:100870000EF0004E4EEA113114EB5C04C2BFD4EB13
:100880000C0541EA045170BD41F480114FF0000E97
:10089000013C90E645EA060E8DE60CEA135594EA13
:1008A0000C0F08BF95EA0C0F3FF43BAF94EA0C0F16
:1008B0000AD150EA01347FF434AF95EA0C0F7FF48B
:1008C00025AF104619462CE795EA0C0F06D152EADF
:1008D00003353FF4FDAE1046194622E750EA4106C3
:1008E00018BF52EA43067FF4C5AE50EA41047FF4D4
:1008F0000DAF52EA43057FF4EBAE12E74FF0FF3C39
:1009000006E000BF4FF0010C02E000BF4FF0010C09
:100910004DF804CD4FEA410C7FEA6C5C4FEA430C82
:1009200018BF7FEA6C5C1BD001B050EA410C0CBFD1
:1009300052EA430C91EA030F02BF90EA020F002033
:10094000704710F1000F91EA030F58BF994208BF9A
:1009500090422CBFD8176FEAE37040F00100704757
:100960004FEA410C7FEA6C5C02D150EA013C07D1AE
:100970004FEA430C7FEA6C5CD6D152EA033CD3D0F9
:100980005DF8040B704700BF8446104662468C46F3
:100990001946634600E000BF01B5FFF7B7FF002826
:1009A00048BF10F1000F01BD4DF808EDFFF7F4FF4F
:1009B0000CBF012000205DF808FB00BF4DF808EDDA
:1009C000FFF7EAFF34BF012000205DF808FB00BFFD
:1009D0004DF808EDFFF7E0FF94BF012000205DF81F
:1009E00008FB00BF4DF808EDFFF7CEFF94BF0120D4
:1009F00000205DF808FB00BF4DF808EDFFF7C4FFCD
:100A000034BF012000205DF808FB00BF4FEA410C15
:100A10007FEA6C5C02D150EA013C0AD14FEA430CF8
:100A20007FEA6C5C02D152EA033C02D14FF0000035
:100A300070474FF0010070474FEA410212F5001273
:100A400015D211D56FF47873B3EB625212D94FEA15
:100A5000C12343F0004343EA505311F0004F23FAFF
:100A600002F018BF404270474FF00000704750EA54
:100A7000013005D111F0004008BF6FF00040704711
:100A80004FF00000704700BF4FEA4102B2F1E0436F
:100A900024BFB3F5001CDCF1FE5C0DD901F0004C65
:100AA0004FEAC0024CEA5070B2F1004F40EB8300B5
:100AB00008BF20F00100704711F0804F21D113F1E1
:100AC0003872BCBF01F00040704741F480114FEA1A
:100AD0005252C2F11802C2F1200C10FA0CF320FAA3
:100AE00002F018BF40F001004FEAC1234FEAD323C0
:100AF00003FA0CFC40EA0C0023FA02F34FEA43032A
:100B0000CCE77FEA625307D150EA01331EBF4FF0B2
:100B1000FE4040F44000704701F0004040F0FE40CD
:100B200040F40000704700BF80F0004002E000BFCA
:100B300081F0004142001FBF5FEA410392EA030FC8
:100B40007FEA226C7FEA236C6AD04FEA1262D2EB12
:100B50001363C1BFD218414048404140B8BF5B4217
:100B6000192B88BF704710F0004F40F4000020F0B0
:100B70007F4018BF404211F0004F41F4000121F0C6
:100B80007F4118BF494292EA030F3FD0A2F1010210
:100B900041FA03FC10EB0C00C3F1200301FA03F14E
:100BA00000F0004302D5494260EB4000B0F5000F71
:100BB00013D3B0F1807F06D340084FEA310102F130
:100BC0000102FE2A51D2B1F1004F40EBC25008BFE2
:100BD00020F0010040EA03007047490040EB0000AC
:100BE00010F4000FA2F10102EDD1B0FA80FCACF1DB
:100BF000080CB2EB0C0200FA0CF0AABF00EBC250DA
:100C000052421843BCBFD0401843704792F0000FC7
:100C100081F4000106BF80F400000132013BB5E71A
:100C20004FEA41037FEA226C18BF7FEA236C21D090
:100C300092EA030F04D092F0000F08BF08467047F5
:100C400090EA010F1CBF0020704712F07F4F04D1C3
:100C5000400028BF40F00040704712F100723CBFD6
:100C600000F50000704700F0004343F0FE4040F400
:100C7000000070477FEA226216BF08467FEA2363BE
:100C80000146420206BF5FEA412390EA010F40F4A9
:100C9000800070474FF0000304E000BF10F00043F5
:100CA00048BF40425FEA000C08BF704743F09643DC
:100CB00001464FF000001CE050EA010208BF7047F7
:100CC0004FF000030AE000BF50EA010208BF70477E
:100CD00011F0004302D5404261EB41015FEA010C93
:100CE00002BF84460146002043F0B64308BFA3F18B
:100CF0008053A3F50003BCFA8CF2083AA3EBC2536D
:100D000010DB01FA02FC634400FA02FCC2F120028B
:100D1000BCF1004F20FA02F243EB020008BF20F0C2
:100D20000100704702F1200201FA02FCC2F1200228
:100D300050EA4C0021FA02F243EB020008BF20EA1D
:100D4000DC7070474FF0FF0C1CEAD0521EBF1CEA4B
:100D5000D15392EA0C0F93EA0C0F6FD01A4480EA39
:100D6000010C400218BF5FEA41211ED04FF0006322
:100D700043EA501043EA5111A0FB01310CF000404E
:100D8000B1F5000F3EBF490041EAD3715B0040EA74
:100D9000010062F17F02FD2A1DD8B3F1004F40EB44
:100DA000C25008BF20F00100704790F0000F0CF017
:100DB000004C08BF49024CEA502040EA51207F3ADB
:100DC000C2BFD2F1FF0340EAC250704740F40000B6
:100DD0004FF00003013A5DDC12F1190FDCBF00F0A7
:100DE00000407047C2F10002410021FA02F1C2F155
:100DF000200200FA02FC5FEA310040F1000053EAF1
:100E00004C0308BF20EADC70704792F0000F00F03E
:100E1000004C02BF400010F4000F013AF9D040EA44
:100E20000C0093F0000F01F0004C02BF490011F4D8
:100E3000000F013BF9D041EA0C018FE70CEAD153D6
:100E400092EA0C0F18BF93EA0C0F0AD030F0004C56
:100E500018BF31F0004CD8D180EA010000F000400A
:100E6000704790F0000F17BF90F0004F084691F0C8
:100E7000000F91F0004F14D092EA0C0F01D1420202
:100E80000FD193EA0C0F03D14B0218BF084608D1CB
:100E900080EA010000F0004040F0FE4040F4000015
:100EA000704740F0FE4040F4400070474FF0FF0CA8
:100EB0001CEAD0521EBF1CEAD15392EA0C0F93EAEF
:100EC0000C0F69D0A2EB030280EA010C49024FEA41
:100ED000402037D04FF0805343EA111143EA1013FA
:100EE0000CF000408B4238BF5B0042F17D024FF4B2
:100EF000000C8B4224BF5B1A40EA0C00B3EB510F8D
:100F000024BFA3EB510340EA5C00B3EB910F24BF75
:100F1000A3EB910340EA9C00B3EBD10F24BFA3EBFA
:100F2000D10340EADC001B0118BF5FEA1C1CE0D1C2
:100F3000FD2A3FF650AF8B4240EBC25008BF20F075
:100F4000010070470CF0004C4CEA50207F32C2BFC9
:100F5000D2F1FF0340EAC250704740F400004FF066
:100F60000003013A37E792F0000F00F0004C02BF97
:100F7000400010F4000F013AF9D040EA0C0093F061
:100F8000000F01F0004C02BF490011F4000F013BBB
:100F9000F9D041EA0C0195E70CEAD15392EA0C0F23
:100FA00008D142027FF47DAF93EA0C0F7FF470AF5B
:100FB000084676E793EA0C0F04D14B023FF44CAF9E
:100FC00008466EE730F0004C18BF31F0004CCAD133
:100FD00030F000427FF45CAF31F000437FF43CAF6F
:100FE0005FE700BF42000ED2B2F1FE4F0BD34FF0CD
:100FF0009E03B3EB126209D44FEA002343F000438F
:1010000023FA02F070474FF00000704712F1610FB1
:1010100001D1420202D14FF0FF3070474FF0000083
:10102000704700BF000000002DE9B0438CB000AF56
:1010300078603960644B654A1A60634B644A5A6051
:10104000614B644A9A60604B4FF00002DA605E4B7D
:101050004FF000021A615C4B4FF000029A615A4B4C
:101060004FF00002DA61584B4FF000021A62564B03
:101070004FF000025A62584B544A1A60564B544A79
:101080005A60554B534A9A60534B4FF00002DA6056
:10109000514B4FF000021A614F4B4FF000029A6122
:1010A0004D4B4FF00002DA614B4B4FF000021A62D9
:1010B000494B4FF000025A6200F07EFD00F0D6FD71
:1010C00003461846FFF79EF902460B46C7E90A2376
:1010D00000F0D8FD03461846FFF794F902460B4688
:1010E000C7E9082300F0DAFD03461846FFF78AF93E
:1010F00002460B46C7E90623D7E90623D7E90801CC
:101100000AF0A0F92EA3D3E90023FFF7E5F9024680
:101110000B46C7E90423BC6AFB6A83F00045D7E9A4
:101120000823D7E90801FFF7D7F902460B46904696
:101130009946D7E90623D7E90601FFF7CDF902461C
:101140000B4640464946FFF711F802460B4610464B
:1011500019460AF079F902460B4620462946FFF760
:10116000E5FA03460C461846214609F0DDFF14A3B4
:10117000D3E90023FFF7B0F903460C46C7E9023470
:10118000D7E90401FFF780FC02460F4BDA60D7E98C
:101190000201FFF779FC02460F4BDA600F4A3B6809
:1011A00013607868FFF71EFF02460D4B1A600D4B67
:1011B00000221A6000BF3037BD46BDE8B08300BFD3
:1011C00000000020DCA54C40040600206F12833A8A
:1011D000A69B443B8FC2F53CDC0500208403002025
:1011E000740300206C0300202DE9B04398B000AFD9
:1011F0004FF000024FF00003C7E916234FF0000242
:101200004FF00003C7E9122300F086F90246A04B15
:101210001A609F4B1A689F4B1B68D31A1846FFF73A
:1012200039FD02469C4B1B6819461046FFF73EFEEF
:1012300003461846FFF7F8F802460B46C7E91023A5
:10124000934B1B68934A136000F010FD0346184649
:10125000FFF7D8F802460B46C7E90E2300F012FD4F
:1012600003461846FFF7CEF802460B46C7E90C23A3
:1012700000F014FD03461846FFF7C4F802460B467B
:10128000C7E90A2300F016FD03461846FFF7BAF82F
:1012900002460B46C7E9082300F018FD034618462E
:1012A000FFF7B0F802460B46C7E90623D7E90A2341
:1012B000D7E90C010AF0C6F871A3D3E90023FFF7C0
:1012C0000BF902460B46C7E90423BC6BFB6B83F0AA
:1012D0000045D7E90C23D7E90C01FFF7FDF80246DA
:1012E0000B4690469946D7E90A23D7E90A01FFF74A
:1012F000F3F802460B4640464946FEF737FF0246E2
:101300000B46104619460AF09FF802460B46204647
:101310002946FFF70BFA03460C461846214609F00A
:1013200003FF57A3D3E90023FFF7D6F803460C4683
:10133000C7E9023454A3D3E90023D7E90801FFF732
:10134000CBF803460C46C7E900344FA3D3E900238A
:10135000D7E90601FFF7C0F803460C46C7E9143485
:101360004FF000024D4BD7E90401FFF727FB03467E
:10137000002B09D04FF00002494BD7E91601FFF7C7
:101380003BFB0346002B13D14FF00002444BD7E93F
:101390000401FFF731FB0346002B15D04FF000028C
:1013A0003E4BD7E91601FFF709FB0346002B0BD094
:1013B000D7E90401FFF768FB02463A4BDA60D7E948
:1013C0000434C7E916341BE0D7E90401FFF75CFBDE
:1013D0000446D7E90001FFF757FB0546D7E910019E
:1013E000FFF752FB03461A462946204600F0C2F892
:1013F00003461846FFF718F803460C46C7E91634AB
:10140000D7E91601FFF718FB0346002BB8BF5B4274
:101410005A2B05DD3B6D3B657B6D83F000437B659F
:10142000D7E90201FFF730FB0446D7E91401FFF7C3
:101430002BFB0546D7E91001FFF726FB03461A46AA
:101440002946204600F0A8F903461846FEF7ECFFAF
:1014500003460C46C7E91234D7E91601FFF714FB1F
:101460000246114B1A60D7E91201FFF70DFB024645
:101470000E4B1A6000BF6037BD46BDE8B08300BFA9
:1014800000000020DCA54C400000004008AC7C3F80
:10149000880300208C03002084030020008056C0B5
:1014A0000080564004060020800300207C030020BA
:1014B00080B400AF024B1B681846BD4680BC704725
:1014C0007C03002080B400AF024B1B681846BD4669
:1014D00080BC70478003002080B500AF0B4B1B68B9
:1014E00001330A4A13600A4B1B680133084A136030
:1014F000074B1A68074B1B689A4204D300F016F892
:10150000034B00221A6000BF80BD00BF6C030020A7
:10151000700300207403002080B400AF024B1B68EE
:101520001846BD4680BC70476C03002080B400AFF5
:10153000034B01221A7000BFBD4680BC704700BF3C
:101540007803002080B400AF034B1B78DBB2184651
:10155000BD4680BC704700BF7803002080B400AF58
:10156000034B00221A7000BFBD4680BC704700BF0D
:101570007803002090B58BB000AFF860B9607A6056
:10158000844B1B691946B868FFF7D2FA03461A461E
:10159000804B5A617F4BDC687E4B5B6979681846EB
:1015A000FFF7D0FB034619462046FFF7C3FA034670
:1015B0001A46784BDA60774B9C69764B5B6A7968A0
:1015C0001846FFF7BFFB03461A46724BDB69194604
:1015D0001046FFF7ADFA03461A466E4B1B6A1946D2
:1015E0001046FFF7A5FA03461A466A4B1B681946D0
:1015F0001046FFF79FFA034679681846FFF7A2FBEB
:10160000034619462046FFF795FA03461A46614BF2
:101610009A61604BDC695F4B5B6A79681846FFF73B
:1016200091FB034619462046FFF782FA03461A4605
:10163000584BDA61574B1C6A564B5B6A79681846FF
:10164000FFF780FB034619462046FFF771FA034671
:101650001A46504B1A624F4B5C6A4E4B5B68796876
:101660001846FFF76FFB034619462046FFF762FA5C
:1016700003461A46474B5A62464B9A69454B9B684C
:1016800019461046FFF756FA03467B62414B9B69A9
:10169000796A1846FFF70AFC03463B613D4B1B6A1B
:1016A000796A1846FFF702FC03467B61394BDB6819
:1016B0001946F868FFF73CFA03463B62354BDC6895
:1016C0003B69396A1846FFF73DFB03461946204639
:1016D000FFF730FA03461A462E4BDA602D4B1C6991
:1016E0007B69396A1846FFF72DFB034619462046E9
:1016F000FFF720FA03461A46264B1A61254B9B69D1
:10170000FB61244BDB69BB61224B9C693B69F96936
:101710001846FFF717FB034619462046FFF708FA5D
:1017200003461A461B4B9A611A4BDC693B69B9693F
:101730001846FFF707FB034619462046FFF7F8F95E
:1017400003461A46134BDA61124B1C6A7B69F9692E
:101750001846FFF7F7FA034619462046FFF7E8F95F
:1017600003461A460B4B1A620A4B5C6A7B69B969DD
:101770001846FFF7E7FA034619462046FFF7D8F95F
:1017800003461A46034B5A62024BDB6818462C3755
:10179000BD4690BD0406002090B58BB000AFF86048
:1017A000B9607A60844B1B691946B868FFF7C0F9C5
:1017B00003461A46804B5A617F4BDC687E4B5B695F
:1017C00079681846FFF7BEFA034619462046FFF728
:1017D000B1F903461A46784BDA60774B9C69764B31
:1017E0005B6A79681846FFF7ADFA03461A46724BF2
:1017F000DB6919461046FFF79BF903461A466E4B04
:101800001B6A19461046FFF793F903461A466A4BBE
:101810001B6819461046FFF78DF90346796818468C
:10182000FFF790FA034619462046FFF783F903466F
:101830001A46614B9A61604BDC695F4B5B6A796861
:101840001846FFF77FFA034619462046FFF770F95E
:1018500003461A46584BDA61574B1C6A564B5B6A73
:1018600079681846FFF76EFA034619462046FFF7D7
:101870005FF903461A46504B1A624F4B5C6A4E4B57
:101880005B6879681846FFF75DFA034619462046FB
:10189000FFF750F903461A46474B5A62464B9A697E
:1018A000454B9B6819461046FFF744F903467B6297
:1018B000414B9B69796A1846FFF7F8FA03463B618A
:1018C0003D4B1B6A796A1846FFF7F0FA03467B61C5
:1018D000394BDB681946F868FFF72AF903463B6283
:1018E000354BDC683B69396A1846FFF72BFA03462B
:1018F00019462046FFF71EF903461A462E4BDA60BA
:101900002D4B1C697B69396A1846FFF71BFA0346A1
:1019100019462046FFF70EF903461A46264B1A6170
:10192000254B9B69FB61244BDB69BB61224B9C69A6
:101930003B69F9691846FFF705FA03461946204640
:10194000FFF7F6F803461A461B4B9A611A4BDC69FF
:101950003B69B9691846FFF7F5F903461946204671
:10196000FFF7E6F803461A46134BDA61124B1C6A7E
:101970007B69F9691846FFF7E5F9034619462046E1
:10198000FFF7D6F803461A460B4B1A620A4B5C6AFD
:101990007B69B9691846FFF7D5F903461946204611
:1019A000FFF7C6F803461A46034B5A62024BDB6840
:1019B00018462C37BD4690BDDC05002080B483B0AE
:1019C00000AF03463A60FB710B46BB80FB79002BEE
:1019D00003D0094BD6225A8002E0074BD4225A800A
:1019E000054ABB889380044A3B68936000BF0C376C
:1019F000BD4680BC704700BF9003002080B584B016
:101A000000AF0346FB7114E007F10F0301221946F2
:101A10000F2000F081F90346002B04D1FB7B692BDA
:101A200001D1002309E0022000F0A0FDFB79013B79
:101A3000FB71FB79002BE7D1012318461037BD4617
:101A400080BD80B584B000AF0346FB710B46BB710F
:101A500013467B71FB791B015AB2BB799B005BB2C9
:101A600003F00F035BB213435AB297F9053003F04A
:101A700003035BB213435BB2DBB2FB737A79B979D0
:101A8000FB79184600F016F80346002B01D002231C
:101A90000CE007F10F0301221946102000F062F953
:101AA0000346002B01D1002300E001231846103724
:101AB000BD4680BD80B483B000AF0346FB710B46CA
:101AC000BB7113467B71FB79002B02D0FB790A2B8B
:101AD00001D902230DE0BB79032B01D9022308E0D1
:101AE0007B79032B01D9022303E0044ABB791370ED
:101AF000002318460C37BD4680BC70479003002079
:101B000080B584B000AF03460A46FB711346BB7133
:101B1000FB791B015AB2BB795B005BB203F00F0388
:101B20005BB213435BB2DBB2FB73FB7B23F00103BD
:101B3000DBB2FB73BA79FB791146184600F016F850
:101B40000346002B01D002230CE007F10F03012212
:101B50001946112000F006F90346002B01D100239D
:101B600000E0012318461037BD4680BD80B483B025
:101B700000AF03460A46FB711346BB71FB79002B8D
:101B800002D0FB79082B01D902230EE0BB79062B8A
:101B900005D8BB79032B02D0BB79052B01D10223D9
:101BA00003E0044ABB795370002318460C37BD4646
:101BB00080BC70479003002080B584B000AF3B46E6
:101BC00000221A605A609A609A813B460E2219469A
:101BD000202000F0A1F80346002B40D17B781B02A7
:101BE0001AB23B781BB213431AB21F4B9A81FB788F
:101BF0001B021AB2BB781BB213431AB21A4BDA801B
:101C00007B791B021AB23B791BB213431AB2164BF3
:101C10001A81FB791B021AB2BB791BB213431AB2A9
:101C2000114B5A817B7A1B021AB23B7A1BB21343C7
:101C30001AB20D4B1A80FB7A1B021AB2BB7A1BB286
:101C400013431AB2084B5A807B7B1B021AB23B7BB0
:101C50001BB213431AB2044B9A80002300E0012305
:101C600018461037BD4680BD9C03002080B400AFED
:101C7000034BB3F900301846BD4680BC704700BF27
:101C80009C03002080B400AF034BB3F90230184628
:101C9000BD4680BC704700BF9C03002080B400AFED
:101CA000034BB3F904301846BD4680BC704700BFF3
:101CB0009C03002080B400AF034BB3F906301846F4
:101CC000BD4680BC704700BF9C03002080B400AFBD
:101CD000034BB3F908301846BD4680BC704700BFBF
:101CE0009C03002080B500AF094BB3F90C301846B7
:101CF000FEF7D4FF03464FF083411846FFF7D6F8AE
:101D0000034604491846FEF715FF0346184680BDF2
:101D10009C0300200000C84180B586B004AF034694
:101D20003960FB801346BB800D4B98680C4B59887B
:101D3000FB88DBB29AB20A4B9B880293BB88019363
:101D40003B680093012301F0BDF80346002B01D04E
:101D5000012300E0002318460837BD4680BD00BFC0
:101D60009003002080B590B004AF03463960FB803B
:101D70001346BB8007F10C0320220021184606F011
:101D8000A5FEFF233B73BB88202B01D902234CE027
:101D9000284B9868274B5988FB88DBB29AB2254BB1
:101DA0009B880293BB8801933B680093012300F05A
:101DB0008FFF0346002B01D0012336E01D4B9868AE
:101DC0001C4B5988FB88DBB29AB21A4B9B88029352
:101DD000BB88019307F10C030093012301F072F813
:101DE0000346002B01D001231FE0002387F82F308A
:101DF00014E097F82F3007F13002134413F8242C25
:101E000097F82F3039680B441B789A4201D003238E
:101E10000BE097F82F30013387F82F3097F82F30E9
:101E20009BB2BA889A42E4D8002318463037BD46A0
:101E300080BD00BF900300202DE9B04384B004AF03
:101E400000F032FB00F0C8F800F06CF800F03EF94A
:101E500006F082F900F0EEF82C4803F06AF92C4AFB
:101E600064210020FFF7AAFD0A20FFF7C7FD034603
:101E7000002B0BD1002201210820FFF7E2FD0621F3
:101E80000820FFF73DFE642000F070FB2149224846
:101E9000FFF7CAF8FFF756FB0346002BFAD0FFF70F
:101EA0008BFE0346002B2DD1FFF79EF91B4B1B78B1
:101EB0005A1CD1B2194A1170F92B23D9FFF702FB32
:101EC00003461846FEF7B0FA80468946FFF7F0FA57
:101ED00003461846FEF7A8FA04460D46FFF702FF30
:101EE00003461846FEF7A0FA02460B46CDE9022348
:101EF000CDE9004542464B46094807F03FFA074BFB
:101F000000221A70FFF72AFBC4E700BF80060020FA
:101F10002C06002000401C4600002041AA0300209F
:101F200020B8000880B594B000AF07F1280328223C
:101F30000021184606F0CAFD07F1140300221A60BA
:101F40005A609A60DA601A613B1D00221A605A607A
:101F50009A60DA600123BB624FF48033FB62002396
:101F60003B630123BB6302237B644FF48033BB6478
:101F70004FF4E013FB6407F12803184602F0F0FB6E
:101F80000346002B01D000F0DEF80F237B61022313
:101F9000BB618023FB614FF480633B6200237B6263
:101FA00007F114030221184602F05AFE0346002BE3
:101FB00001D000F0C8F810237B6000233B613B1D7B
:101FC000184602F0D5FF0346002B01D000F0BBF805
:101FD00000BF5037BD4680BD80B500AF124B134ADD
:101FE0001A60114B124A5A600F4B00229A600E4B36
:101FF0000022DA600C4B4FF480421A610A4B002237
:102000005A61094B00229A61074B0022DA61064BA4
:1020100000221A62044800F033FD0346002B01D071
:1020200000F091F800BF80BD2C0600200058004051
:10203000801A060080B586B000AF07F108030022C1
:102040001A605A609A60DA603B4600221A605A6051
:102050001D4B4FF080421A601B4B63225A601A4B93
:1020600000229A60184B2322DA60174B00221A6173
:10207000154B00229A61144803F030F80346002BF8
:1020800001D000F060F84FF48053BB6007F1080303
:1020900019460D4803F078F90346002B01D000F0F3
:1020A00052F800233B6000237B603B4619460648FC
:1020B00003F046FB0346002B01D000F044F800BFBC
:1020C0001837BD4680BD00BF8006002080B485B0B3
:1020D00000AF144B9B69134A43F020039361114BEB
:1020E0009B6903F02003FB60FB680E4B9B690D4A64
:1020F00043F0080393610B4B9B6903F00803BB603B
:10210000BB68084B9B69074A43F004039361054B86
:102110009B6903F004037B607B6800BF1437BD46F6
:1021200080BC70470010024080B584B000AFF860FA
:10213000B9607A607968B86806F0CCF87B681846B0
:102140001037BD4680BD80B400AF00BFBD4680BC27
:102150007047000080B485B000AF154B9B69144AEE
:1021600043F001039361124B9B6903F00103BB60D1
:10217000BB680F4BDB690E4A43F08053D3610C4BB5
:10218000DB6903F080537B607B680A4B5B68FB6014
:10219000FB6823F0E063FB60FB6843F00073FB60C7
:1021A000044AFB68536000BF1437BD4680BC7047CB
:1021B000001002400000014080B588B000AF786098
:1021C00007F1100300221A605A609A60DA607B6897
:1021D0001B68164A934224D1154B9B69144A43F05D
:1021E00008039361124B9B6903F00803FB60FB68D3
:1021F0004FF440633B6112237B610323FB6107F1D2
:10220000100319460B4800F0E1FA094BDB69084A54
:1022100043F48003D361064BDB6903F48003BB60A6
:10222000BB6800BF2037BD4680BD00BF00580040DE
:1022300000100240000C014080B584B000AF78600F
:102240007B681B68B3F1804F13D10C4BDB690B4AE1
:1022500043F00103D361094BDB6903F00103FB6029
:10226000FB68002200211C2000F079FA1C2000F0FD
:1022700092FA00BF1037BD4680BD00BF001002407B
:1022800080B400AF00BFBD4680BC704780B400AFD3
:10229000FEE780B400AFFEE780B400AFFEE780B495
:1022A00000AFFEE780B400AF00BFBD4680BC704702
:1022B00080B400AF00BFBD4680BC704780B400AFA3
:1022C00000BFBD4680BC704780B500AF00F032F95A
:1022D00000BF80BD80B500AF024801F066FC00BFC2
:1022E00080BD00BF5813002080B500AF034802F046
:1022F00043FFFFF7F1F800BF80BD00BF800600205C
:1023000080B586B000AFF860B9607A6000237B6169
:102310000AE0AFF300800146BB685A1CBA60CAB23B
:102320001A707B6901337B617A697B689A42F0DBC2
:102330007B6818461837BD4680BD80B483B000AFB7
:1023400078604FF0FF3318460C37BD4680BC7047AD
:1023500080B483B000AF786039603B684FF40052BE
:102360005A60002318460C37BD4680BC704780B4C5
:1023700083B000AF7860012318460C37BD4680BC9F
:10238000704780B485B000AFF860B9607A60002310
:1023900018461437BD4680BC7047000080B584B035
:1023A00000AF7860114B1B68002B02D10F4B104A15
:1023B0001A600E4B1B68FB600C4B1A687B68134459
:1023C0006A46934207D906F057FB02460C23136076
:1023D0004FF0FF3306E0054B1A687B681344034A4D
:1023E0001360FB6818461037BD4680BDAC03002063
:1023F000C815002080B400AF154B1B68144A43F089
:1024000001031360124B5A681149124B13404B6081
:102410000F4B1B680E4A23F0847323F48033136040
:102420000B4B1B680A4A23F480231360084B5B683C
:10243000074A23F4FE035360054B4FF41F029A60D2
:10244000054B4FF000629A6000BFBD4680BC7047EC
:10245000001002400000FFF800ED00E0002103E062
:102460000B4B5B58435004310A480B4B42189A42BD
:10247000F6D30A4A02E0002342F8043B084B9A4292
:10248000F9D3FFF7B7FF06F0FDFAFFF7D5FC704769
:10249000E0BB000800000020500300205003002093
:1024A000C8150020FEE7000080B500AF084B1B6890
:1024B000074A43F010031360032000F045F90020A1
:1024C00000F008F8FFF746FE0023184680BD00BF65
:1024D0000020024080B582B000AF7860124B1A68CD
:1024E000124B1B7819464FF47A73B3FBF1F3B2FB2E
:1024F000F3F3184600F05DF90346002B01D00123E9
:102500000EE07B680F2B0AD8002279684FF0FF306D
:1025100000F025F9064A7B681360002300E00123E0
:1025200018460837BD4680BD000000200800002086
:102530000400002080B400AF054B1B781A46054B01
:102540001B681344034A136000BFBD4680BC70473C
:1025500008000020C006002080B400AF024B1B68BA
:102560001846BD4680BC7047C006002080B584B0C8
:1025700000AF7860FFF7F0FFB8607B68FB60FB6836
:10258000B3F1FF3F05D0094B1B781A46FB68134493
:10259000FB6000BFFFF7E0FF0246BB68D31AFA6892
:1025A0009A42F7D800BF1037BD4680BD0800002012
:1025B00080B485B000AF78607B6803F00703FB60F0
:1025C0000C4BDB68BB60BA684FF6FF031340BB607F
:1025D000FB681A02BB68134343F0BF6343F4003344
:1025E000BB60044ABB68D36000BF1437BD4680BCE3
:1025F000704700BF00ED00E080B400AF044BDB6823
:102600001B0A03F007031846BD4680BC704700BF95
:1026100000ED00E080B483B000AF0346FB7197F992
:102620000730002B0BDBFB7903F01F02064997F9FB
:1026300007305B09012000FA02F241F8232000BFB5
:102640000C37BD4680BC704700E100E080B483B029
:1026500000AF03463960FB7197F90730002B0ADBA6
:102660003B68DAB20C4997F907301201D2B20B4439
:1026700083F800230AE03B68DAB20849FB7903F0EB
:102680000F03043B1201D2B20B441A7600BF0C3781
:10269000BD4680BC704700BF00E100E000ED00E0F7
:1026A00080B489B000AFF860B9607A60FB6803F06D
:1026B0000703FB61FB69C3F10703042B28BF042355
:1026C000BB61FB690433062B02D9FB69033B00E0C5
:1026D00000237B614FF0FF32BB6902FA03F3DA4358
:1026E000BB681A407B699A404FF0FF317B6901FA61
:1026F00003F3D9437B680B40134318462437BD4688
:1027000080BC704780B582B000AF78607B68013BC9
:10271000B3F1807F01D301230FE00A4A7B68013BBC
:1027200053600F214FF0FF30FFF790FF054B002261
:102730009A60044B07221A60002318460837BD46EA
:1027400080BD00BF10E000E080B582B000AF7860CF
:102750007868FFF72DFF00BF0837BD4680BD80B504
:1027600086B000AF0346B9607A60FB7300237B61DB
:10277000FFF742FF78617A68B9687869FFF790FFE0
:10278000024697F90F3011461846FFF75FFF00BF6A
:102790001837BD4680BD80B582B000AF0346FB71DF
:1027A00097F907301846FFF735FF00BF0837BD46D9
:1027B00080BD80B582B000AF78607868FFF7A2FF77
:1027C000034618460837BD4680BD000080B48BB074
:1027D00000AF7860396000237B6200233B6227E111
:1027E00001227B6A02FA03F3FB613B681B68FA690A
:1027F0001340BB61BA69FB699A4240F016813B689D
:102800005B68122B34D0122B0DD8022B2BD0022B4D
:1028100004D8002B31D0012B1CD048E0032B43D02F
:10282000112B1BD043E0894A934226D0874A93421A
:1028300006D8874A934220D0864A93421DD036E07C
:10284000854A934219D0854A934216D0844A9342CE
:1028500013D02CE03B68DB683B6228E03B68DB6818
:1028600004333B6223E03B68DB6808333B621EE0D5
:102870003B68DB680C333B6219E03B689B68002BCC
:1028800002D104233B6212E03B689B68012B05D117
:1028900008233B627B68FA691A6108E008233B62FF
:1028A0007B68FA695A6102E000233B6200BFBB69A2
:1028B000FF2B01D87B6801E07B6804337B61BB6937
:1028C000FF2B02D87B6A9B0002E07B6A083B9B00DF
:1028D0003B617B691A680F213B6901FA03F3DB4313
:1028E0001A40396A3B6901FA03F31A437B691A609B
:1028F0003B685B6803F08053002B00F09680594BD7
:102900009B69584A43F001039361564B9B6903F05E
:102910000103BB60BB68544A7B6A9B08023352F8D0
:102920002330FB607B6A03F003039B000F2202FA53
:1029300003F3DB43FA681340FB607B684B4A934226
:1029400013D07B684A4A93420DD07B68494A934230
:1029500007D07B68484A934201D1032306E0042351
:1029600004E0022302E0012300E000237A6A02F07F
:10297000030292009340FA681343FB603A497B6A72
:102980009B080233FA6841F823203B685B6803F434
:102990008033002B06D0394B1A683849BB69134382
:1029A0000B6006E0354B1A68BB69DB4333491340C3
:1029B0000B603B685B6803F40033002B06D02F4BA1
:1029C0005A682E49BB6913434B6006E02B4B5A688B
:1029D000BB69DB43294913404B603B685B6803F4E8
:1029E0008013002B06D0254B9A682449BB691343FA
:1029F0008B6006E0214B9A68BB69DB431F4913409B
:102A00008B603B685B6803F40013002B06D01B4B04
:102A1000DA681A49BB691343CB6006E0174BDA68E2
:102A2000BB69DB4315491340CB607B6A01337B6292
:102A30003B681A687B6A22FA03F3002B7FF4D0AE5E
:102A400000BF2C37BD4680BC704700BF000021107E
:102A500000001110000012100000311000003210B0
:102A60000000221000100240000001400008014058
:102A7000000C01400010014000140140000401401E
:102A800080B584B000AF78607B68002B01D1012352
:102A90000FE17B6893F83D30DBB2002B06D17B68F9
:102AA000002283F83C207868FFF786FB7B682422AD
:102AB00083F83D207B681B681A687B681B6822F0DE
:102AC00001021A6002F022FAF8607B685B687B4AB8
:102AD000934207D8FB687A4A934294BF01230023AC
:102AE000DBB206E0FB68774A934294BF01230023E0
:102AF000DBB2002B01D00123DBE0FB68724AA2FBB2
:102B000003239B0CBB607B681B685B6823F03F0161
:102B10007B681B68BA680A435A607B681B681B6A3B
:102B200023F03F017B685B68644A934202D8BB682C
:102B3000013309E0BB684FF4967202FB03F3634A6A
:102B4000A2FB03239B0901337A6812680B431362CB
:102B50007B681B68DB6923F44F4222F0FF027B682D
:102B60005B6856498B420DD8FB68591E7B685B68D1
:102B70005B00B1FBF3F30133C3F30B03042B38BF4A
:102B800004234FE07B689B68002B11D1FB68581E23
:102B90007B6859680B465B000B44B0FBF3F30133D1
:102BA000C3F30B03002B0CBF01230023DBB212E0A5
:102BB000FB68581E7B6859680B469B000B449900C4
:102BC0000B44B0FBF3F30133C3F30B03002B0CBF37
:102BD00001230023DBB2002B01D0012322E07B681C
:102BE0009B68002B0ED1FB68581E7B6859680B460A
:102BF0005B000B44B0FBF3F30133C3F30B0343F46B
:102C000000430FE0FB68581E7B6859680B469B0029
:102C10000B4499000B44B0FBF3F30133C3F30B03F4
:102C200043F44043796809681343CB617B681B68B0
:102C30001B6823F0C0017B68DA697B681B6A1A4352
:102C40007B681B680A431A607B681B689B6823F4D7
:102C5000034323F0FF037A6811697A68D26811434D
:102C60007A6812680B4393607B681B68DB6823F00B
:102C7000FF017B685A697B689B691A437B681B6804
:102C80000A43DA607B681B681A687B681B6842F03D
:102C900001021A607B6800221A647B68202283F894
:102CA0003D207B6800221A637B68002283F83E2067
:102CB000002318461037BD4680BD00BFA086010026
:102CC0007F841E00FF083D0083DE1B43D34D62104E
:102CD00080B588B002AFF860084611461A46034630
:102CE0007B810B463B811346FB80FFF735FC786107
:102CF000FB6893F83D30DBB2202B40F0D9807B6934
:102D00000093192301226D49F86800F06BFC03461B
:102D1000002B01D00223CCE0FB6893F83C30012B60
:102D200001D10223C5E0FB68012283F83C20FB6847
:102D30001B681B6803F00103012B07D0FB681B68AD
:102D40001A68FB681B6842F001021A60FB681B6886
:102D50001A68FB681B6822F400621A60FB68212273
:102D600083F83D20FB68402283F83E20FB68002268
:102D70001A64FB683A6A5A62FB68BA8C5A85FB6827
:102D80005B8D9AB2FB681A85FB684D4ADA62F88857
:102D90003A8979897B690193BB6A00930346F86895
:102DA00000F0C6FA0346002B52D0012381E07A6975
:102DB000B96AF86800F0ECFC0346002B0DD0FB6804
:102DC0001B6C042B07D1FB681B681A68FB681B6827
:102DD00042F400721A6001236BE0FB685B6A1A78A8
:102DE000FB681B681A61FB685B6A5A1CFB685A62C5
:102DF000FB681B8D013B9AB2FB681A85FB685B8DF3
:102E00009BB2013B9AB2FB685A85FB681B685B6901
:102E100003F00403042B1BD1FB681B8D002B17D080
:102E2000FB685B6A1A78FB681B681A61FB685B6A5F
:102E30005A1CFB685A62FB681B8D013B9AB2FB6807
:102E40001A85FB685B8D9BB2013B9AB2FB685A8581
:102E5000FB681B8D002BAAD17A69B96AF86800F06B
:102E6000D8FC0346002B0DD0FB681B6C042B07D14C
:102E7000FB681B681A68FB681B6842F400721A60E2
:102E8000012316E0FB681B681A68FB681B6842F4A4
:102E900000721A60FB68202283F83D20FB68002244
:102EA00083F83E20FB68002283F83C20002300E0EA
:102EB000022318461837BD4680BD00BF020010002F
:102EC0000000FFFF80B58CB002AFF86008461146E5
:102ED0001A4603467B810B463B811346FB80FFF776
:102EE0003BFB7862FB6893F83D30DBB2202B40F06F
:102EF00018827B6A0093192301228149F86800F047
:102F000071FB0346002B01D002230BE2FB6893F810
:102F10003C30012B01D1022304E2FB68012283F83B
:102F20003C20FB681B681B6803F00103012B07D0E2
:102F3000FB681B681A68FB681B6842F001021A6094
:102F4000FB681B681A68FB681B6822F400621A6041
:102F5000FB68222283F83D20FB68402283F83E2054
:102F6000FB6800221A64FB683A6B5A62FB68BA8EEF
:102F70005A85FB685B8D9AB2FB681A85FB68614ACB
:102F8000DA62F8883A8979897B6A0193BB6B00938E
:102F90000346F86800F056FA0346002B01D00123DF
:102FA000C0E1FB681B8D002B13D100233B62FB6843
:102FB0001B685B693B62FB681B689B693B623B6A01
:102FC000FB681B681A68FB681B6842F400721A6091
:102FD00094E1FB681B8D012B1DD1FB681B681A68EF
:102FE000FB681B6822F480621A6072B60023FB61E2
:102FF000FB681B685B69FB61FB681B689B69FB6185
:10300000FB69FB681B681A68FB681B6842F4007266
:103010001A6062B672E1FB681B8D022B1DD1FB6842
:103020001B681A68FB681B6842F400621A6072B67B
:103030000023BB61FB681B685B69BB61FB681B68A5
:103040009B69BB61BB69FB681B681A68FB681B68EE
:1030500022F480621A6062B650E1FB681B681A684D
:10306000FB681B6842F480621A6000237B61FB6886
:103070001B685B697B61FB681B689B697B617B6983
:103080003CE1FB681B8D032B00F2F580FB681B8D78
:10309000012B23D17A6AB96BF86800F0FBFB034679
:1030A000002B01D001233DE1FB681B681A69FB6816
:1030B0005B6AD2B21A70FB685B6A5A1CFB685A6280
:1030C000FB681B8D013B9AB2FB681A85FB685B8D20
:1030D0009BB2013B9AB2FB685A850FE1FB681B8DDE
:1030E000022B50D17B6A0093BB6B00220649F86823
:1030F00000F078FA0346002B08D0012312E100BF4C
:10310000020010000000FFFF0400010072B6FB681F
:103110001B681A68FB681B6842F400721A60FB683F
:103120001B681A69FB685B6AD2B21A70FB685B6A3B
:103130005A1CFB685A62FB681B8D013B9AB2FB6804
:103140001A85FB685B8D9BB2013B9AB2FB685A857E
:1031500062B6FB681B681A69FB685B6AD2B21A70B8
:10316000FB685B6A5A1CFB685A62FB681B8D013B5B
:103170009AB2FB681A85FB685B8D9BB2013B9AB2E1
:10318000FB685A85BAE07B6A0093BB6B00226749F3
:10319000F86800F027FA0346002B01D00123C1E0B4
:1031A000FB681B681A68FB681B6822F480621A605F
:1031B00072B6FB681B681A69FB685B6AD2B21A7048
:1031C000FB685B6A5A1CFB685A62FB681B8D013BFB
:1031D0009AB2FB681A85FB685B8D9BB2013B9AB281
:1031E000FB685A857B6A0093BB6B00224F49F868E5
:1031F00000F0F8F90346002B01D0012392E0FB68B0
:103200001B681A68FB681B6842F400721A60FB684E
:103210001B681A69FB685B6AD2B21A70FB685B6A4A
:103220005A1CFB685A62FB681B8D013B9AB2FB6813
:103230001A85FB685B8D9BB2013B9AB2FB685A858D
:1032400062B6FB681B681A69FB685B6AD2B21A70C7
:10325000FB685B6A5A1CFB685A62FB681B8D013B6A
:103260009AB2FB681A85FB685B8D9BB2013B9AB2F0
:10327000FB685A8542E07A6AB96BF86800F00AFB8D
:103280000346002B01D001234CE0FB681B681A6940
:10329000FB685B6AD2B21A70FB685B6A5A1CFB68F7
:1032A0005A62FB681B8D013B9AB2FB681A85FB686A
:1032B0005B8D9BB2013B9AB2FB685A85FB681B6829
:1032C0005B6903F00403042B18D1FB681B681A69BF
:1032D000FB685B6AD2B21A70FB685B6A5A1CFB68B7
:1032E0005A62FB681B8D013B9AB2FB681A85FB682A
:1032F0005B8D9BB2013B9AB2FB685A85FB681B8DC4
:10330000002B7FF4BEAEFB68202283F83D20FB68D3
:10331000002283F83E20FB68002283F83C20002333
:1033200000E0022318462837BD4680BD0400010096
:1033300080B588B002AFF860084611461A460346C9
:103340007B810B463B811346FB80FB681B681A6838
:10335000FB681B6842F480721A607B6A00933B6AC8
:1033600000224FF00111F86800F03CF90346002BF1
:1033700001D001235FE07B89DBB21A46FB681B6842
:1033800002F0FE021A617B6A3A6A2D49F86800F081
:1033900080F90346002B01D001234CE000237B6120
:1033A000FB681B685B697B61FB681B689B697B61D1
:1033B0007B697A6A396AF86800F0EAF90346002BFB
:1033C0000DD0FB681B6C042B07D1FB681B681A68C7
:1033D000FB681B6842F400721A6001232BE0FB8833
:1033E000012B05D13B89DAB2FB681B681A6121E029
:1033F0003B891B0A9BB2DAB2FB681B681A617A6AC6
:10340000396AF86800F0C4F90346002B0DD0FB6858
:103410001B6C042B07D1FB681B681A68FB681B68D0
:1034200042F400721A60012305E03B89DAB2FB68BE
:103430001B681A61002318461837BD4680BD00BFBF
:103440000200010080B588B002AFF860084611465E
:103450001A4603467B810B463B811346FB80FB6883
:103460001B681A68FB681B6842F480621A60FB687C
:103470001B681A68FB681B6842F480721A607B6ADA
:1034800000933B6A00224FF00111F86800F0AAF89F
:103490000346002B01D001239EE07B89DBB21A4654
:1034A000FB681B6802F0FE021A617B6A3A6A4C49AB
:1034B000F86800F0EEF80346002B01D001238BE002
:1034C00000237B61FB681B685B697B61FB681B6891
:1034D0009B697B617B697A6A396AF86800F058F900
:1034E0000346002B0DD0FB681B6C042B07D1FB6837
:1034F0001B681A68FB681B6842F400721A6001239B
:103500006AE0FB88012B05D13B89DAB2FB681B68B6
:103510001A6121E03B891B0A9BB2DAB2FB681B6887
:103520001A617A6A396AF86800F032F90346002BAA
:103530000DD0FB681B6C042B07D1FB681B681A6855
:10354000FB681B6842F400721A60012344E03B8967
:10355000DAB2FB681B681A617A6A396AF86800F0A7
:1035600017F90346002B0DD0FB681B6C042B07D109
:10357000FB681B681A68FB681B6842F400721A60DB
:10358000012329E0FB681B681A68FB681B6842F48A
:1035900080721A607B6A00933B6A00224FF001112F
:1035A000F86800F01FF80346002B01D0012313E058
:1035B0007B89DBB243F00103DAB2FB681B681A6156
:1035C0007B6A3A6A0649F86800F063F80346002B04
:1035D00001D0012300E0002318461837BD4680BD06
:1035E0000200010080B584B000AFF860B9603B60B4
:1035F0001346FB7125E03B68B3F1FF3F21D0FEF796
:10360000ABFF0246BB69D31A3A689A4202D33B68C1
:10361000002B16D1FB6800221A63FB68202283F876
:103620003D20FB68002283F83E20FB681B6C43F0C2
:103630002002FB681A64FB68002283F83C20012307
:1036400023E0BB681B0CDBB2012B0DD1FB681B68B0
:103650005B69DA43BB6813409BB2002B0CBF0123AC
:103660000023DBB21A460CE0FB681B689B69DA4357
:10367000BB6813409BB2002B0CBF01230023DBB2BD
:103680001A46FB799A42B6D0002318461037BD4639
:1036900080BD80B584B000AFF860B9607A603B60EF
:1036A00051E0FB681B685B6903F48063B3F5806FCE
:1036B00023D1FB681B681A68FB681B6842F4007220
:1036C0001A60FB681B686FF480625A61FB68002215
:1036D0001A63FB68202283F83D20FB68002283F8F0
:1036E0003E20FB681B6C43F00402FB681A64FB6815
:1036F000002283F83C20012346E07B68B3F1FF3FC2
:1037000021D0FEF729FF02463B68D31A7A689A4215
:1037100002D37B68002B16D1FB6800221A63FB687A
:10372000202283F83D20FB68002283F83E20FB68BE
:103730001B6C43F02002FB681A64FB68002283F8CC
:103740003C20012320E0BB681B0CDBB2012B0CD119
:10375000FB681B685B69DA43BB6813409BB2002BB4
:1037600014BF01230023DBB20BE0FB681B689B69DD
:10377000DA43BB6813409BB2002B14BF0123002324
:10378000DBB2002B8DD1002318461037BD4680BD1B
:1037900080B584B000AFF860B9607A602DE0F86859
:1037A00000F0CEF80346002B01D001232DE0BB68CA
:1037B000B3F1FF3F21D0FEF7CFFE02467B68D31A5C
:1037C000BA689A4202D3BB68002B16D1FB6800226C
:1037D0001A63FB68202283F83D20FB68002283F8EF
:1037E0003E20FB681B6C43F02002FB681A64FB68F8
:1037F000002283F83C20012307E0FB681B685B691B
:1038000003F08003802BCAD1002318461037BD4631
:1038100080BD80B584B000AFF860B9607A602DE0FB
:10382000F86800F08DF80346002B01D001232DE04D
:10383000BB68B3F1FF3F21D0FEF78EFE02467B68E6
:10384000D31ABA689A4202D3BB68002B16D1FB6820
:1038500000221A63FB68202283F83D20FB680022C7
:1038600083F83E20FB681B6C43F02002FB681A645F
:10387000FB68002283F83C20012307E0FB681B68FB
:103880005B6903F00403042BCAD1002318461037E8
:10389000BD4680BD80B584B000AFF860B9607A6085
:1038A00042E0FB681B685B6903F01003102B19D121
:1038B000FB681B686FF010025A61FB6800221A63F4
:1038C000FB68202283F83D20FB68002283F83E201D
:1038D000FB681A6CFB681A64FB68002283F83C20C2
:1038E000012329E0FEF738FE02467B68D31ABA6846
:1038F0009A4202D3BB68002B16D1FB6800221A63E0
:10390000FB68202283F83D20FB68002283F83E20DC
:10391000FB681B6C43F02002FB681A64FB68002202
:1039200083F83C20012307E0FB681B685B6903F018
:103930004003402BB5D1002318461037BD4680BD4B
:1039400080B483B000AF78607B681B685B6903F468
:103950008063B3F5806F1BD17B681B686FF4806256
:103960005A617B6800221A637B68202283F83D201D
:103970007B68002283F83E207B681B6C43F00402C6
:103980007B681A647B68002283F83C20012300E0F6
:10399000002318460C37BD4680BC7047F0B58BB08D
:1039A00006AF78607B68002B01D10123D3E07B68F0
:1039B00093F82932DBB2002B06D17B68002283F812
:1039C0002822786804F0BAFD7B68032283F8292254
:1039D0007B681B68184601F030FF7B681B683B6002
:1039E0007E686D4606F110040FCC0FC523682B606E
:1039F000331D0ECB386801F0F9FE0346002B05D0CD
:103A00007B68022283F829220123A4E07B681B68DB
:103A10000021184601F02DFF0023FB7335E0FB7BEE
:103A20007A685B011344293301221A70FB7B7A68A0
:103A30005B0113442833FA7B1A70FB7BFA7B91B24B
:103A40007A685B01134436330A461A80FB7B7A6836
:103A50005B0113442B3300221A70FB7B7A685B01F5
:103A60001344383300221A60FB7B7A685B011344ED
:103A70003C3300221A60FB7B7A6802335B011344FB
:103A800000221A60FB7B0133FB73FA7B7B685B6867
:103A90009A42C4D30023FB7331E0FB7B7A685B015D
:103AA000134403F2291300221A70FB7B7A685B012E
:103AB000134403F59473FA7B1A70FB7B7A685B01FD
:103AC000134403F22B1300221A70FB7B7A685B010C
:103AD000134403F59C7300221A60FB7B7A685B0138
:103AE000134403F59E7300221A60FB7B7A680A3345
:103AF0005B01134400221A60FB7B0133FB73FA7BEA
:103B00007B685B689A42C8D37B681B683B607E68B1
:103B10006D4606F110040FCC0FC523682B60331DD2
:103B20000ECB386801F0B1FE0346002B05D07B6850
:103B3000022283F8292201230DE07B68002283F80A
:103B400024207B68012283F829227B681B681846A1
:103B500002F0EFFE002318461437BD46F0BD80B5D5
:103B600082B000AF78607B6893F82832012B01D1D6
:103B7000022316E07B68012283F82822012178685D
:103B800004F043FF7B681B68184602F0C8FE7B68A0
:103B90001B68184601F03AFE7B68002283F8282251
:103BA000002318460837BD4680BD80B582B000AFFF
:103BB00078607B681B68184602F0C5FE034603F474
:103BC0000043B3F5004F02D1786800F0F3FA7B6848
:103BD0001B68184602F0B7FE034603F48063B3F592
:103BE000806F12D17B681B68B3F844309AB27B684F
:103BF0001B6822F4806292B2A3F84420786804F033
:103C000012FD0021786800F0DEF87B681B6818461A
:103C100002F099FE034603F48043B3F5804F0BD1C5
:103C20007B681B68B3F844309AB27B681B6822F447
:103C3000804292B2A3F844207B681B68184602F0C9
:103C400082FE034603F40053B3F5005F0BD17B689B
:103C50001B68B3F844309AB27B681B6822F40052A8
:103C600092B2A3F844207B681B68184602F06BFEF2
:103C7000034603F48053B3F5805F26D17B681B684D
:103C8000B3F840309AB27B681B6822F0040292B20B
:103C9000A3F840207B681B68B3F840309AB27B6879
:103CA0001B6822F0080292B2A3F84020786804F062
:103CB000F3FC7B681B68B3F844309AB27B681B68DE
:103CC00022F4805292B2A3F844207B681B68184605
:103CD00002F039FE034603F40063B3F5006F3DD1F3
:103CE0007B681B68B3F840309AB27B681B6842F06F
:103CF000080292B2A3F840207B681B68B3F84430F6
:103D00009AB27B681B6822F4006292B2A3F8442046
:103D10007B681B68B3F840309AB27B681B6842F03E
:103D2000040292B2A3F840207B681B68184602F098
:103D30000AFE034603F48053B3F5805F0BD17B6822
:103D40001B68B3F844309AB27B681B6822F4805237
:103D500092B2A3F84420786804F084FC7B681B6866
:103D6000184602F0F0FD034603F40073B3F5007F3C
:103D70000ED17B681B68B3F844309AB27B681B682D
:103D800022F4007292B2A3F84420786804F03DFC5B
:103D90007B681B68184602F0D6FD034603F4807367
:103DA000B3F5807F0BD17B681B68B3F844309AB2BF
:103DB0007B681B6822F4807292B2A3F8442000BF93
:103DC0000837BD4680BD80B582B000AF78600B4635
:103DD000FB707B6893F82832012B01D1022313E09A
:103DE0007B68012283F828227B68FA7883F82420F4
:103DF0007B681B68FA781146184602F07DFD7B68E7
:103E0000002283F82822002318460837BD4680BDCB
:103E100080B584B000AF7860084611461A46034664
:103E2000FB700B463B801346BB700023FB7297F977
:103E30000330002B0BDAFB7803F007035B01283318
:103E40007A681344FB60FB6801225A700BE0FB7830
:103E500003F007035B0103F594737A681344FB6076
:103E6000FB6800225A70FB7803F00703DAB2FB68A4
:103E70001A703A88FB681A61FB68BA78DA70FB68D6
:103E80005B78002B04D0FB681B789AB2FB68DA8160
:103E9000BB78022B02D1FB6800221A717B6893F871
:103EA0002832012B01D102230EE07B68012283F826
:103EB00028227B681B68F968184601F00BFD7B68B7
:103EC000002283F82822FB7A18461037BD4680BDB1
:103ED00080B584B000AF78600B46FB7097F9033073
:103EE000002B0BDAFB7803F007035B0128337A68B9
:103EF0001344FB60FB6801225A700BE0FB7803F06F
:103F000007035B0103F594737A681344FB60FB6855
:103F100000225A70FB7803F00703DAB2FB681A70CC
:103F20007B6893F82832012B01D102230EE07B68D5
:103F3000012283F828227B681B68F968184601F083
:103F4000B7FF7B68002283F8282200231846103729
:103F5000BD4680BD80B586B000AFF8607A603B603A
:103F60000B46FB72FB7A03F007035B0103F59473C6
:103F7000FA6813447B617B697A685A617B693A68A5
:103F80009A617B690022DA617B6900225A70FB7AB0
:103F900003F00703DAB27B691A70FB7A03F00703B8
:103FA000002B06D1FB681B687969184602F016F9E8
:103FB00005E0FB681B687969184602F00FF90023D9
:103FC00018461837BD4680BD80B483B000AF786016
:103FD0000B46FB70FB7803F007037A680A335B013A
:103FE000134404331B6818460C37BD4680BC704729
:103FF00080B586B000AFF8607A603B600B46FB721C
:10400000FB7A03F007035B012833FA6813447B61F2
:104010007B697A685A617B693A689A617B69002298
:10402000DA617B6901225A70FB7A03F00703DAB286
:104030007B691A70FB7A03F00703002B06D1FB683B
:104040001B687969184602F0C9F805E0FB681B682F
:104050007969184602F0C2F8002318461837BD46A1
:1040600080BD80B584B000AF78600B46FB70FB78F4
:1040700003F007027B685B689A4201D9012346E09E
:1040800097F90330002B0BDAFB7803F007035B0191
:1040900028337A681344FB60FB6801225A7009E0F8
:1040A000FB785B0103F594737A681344FB60FB684B
:1040B00000225A70FB6801229A70FB7803F0070314
:1040C000DAB2FB681A707B6893F82832012B01D1B1
:1040D00002231CE07B68012283F828227B681B688E
:1040E000F968184602F032FBFB7803F00703002B57
:1040F00008D17B681A687B6803F50C731946104673
:1041000002F030FC7B68002283F828220023184646
:104110001037BD4680BD80B584B000AF78600B46D7
:10412000FB70FB7803F00F027B685B689A4201D951
:1041300001233AE097F90330002B0BDAFB7803F008
:1041400007035B0128337A681344FB60FB68012294
:104150005A700BE0FB7803F007035B0103F59473DF
:104160007A681344FB60FB6800225A70FB680022E7
:104170009A70FB7803F00703DAB2FB681A707B6869
:1041800093F82832012B01D102230EE07B68012233
:1041900083F828227B681B68F968184602F018FB30
:1041A0007B68002283F82822002318461037BD467A
:1041B00080BD000090B589B000AF786082E27B6876
:1041C0001B68B3F84430FB82FB8ADBB203F00F03B9
:1041D0007B757B7D002B40F04281FB8A03F010034E
:1041E000002B51D17B681B681B889BB223F4E143F1
:1041F00023F070039CB27B681A686FEA44436FEA4D
:1042000053439BB213807B682833FB607B681B6839
:10421000B3F850309BB21A46FB681B78DB0013449E
:1042200002335B007A681268134403F580631B88CD
:10423000C3F30902FB68DA61FB685A69FB68DB6952
:104240001A44FB685A610021786804F0C7F97B685A
:1042500093F82430DBB2002B00F03482FB689B69BA
:10426000002B40F02F827B6893F82430DBB263F0A0
:104270007F03DAB27B681B6892B2A3F84C207B689C
:10428000002283F824201DE27B6803F59473FB6011
:104290007B681B681B887B827B8A03F40063002B8E
:1042A00033D07B681B68B3F850309BB21A46FB686A
:1042B0001B78DB00134406335B007A6812681344F2
:1042C00003F580631B88C3F30902FB68DA617B682E
:1042D00018687B6803F50C71FB68DA88FB68DB699A
:1042E0009BB202F08EFB7B681B681B889AB240F67B
:1042F0008F7313409CB27B681B6844F0800292B2BB
:104300001A80786804F040F9DCE1B7F91230002B2C
:1043100080F2D8817B681B681B889AB240F68F7345
:1043200013409CB27B681B6844F0800292B21A80F2
:104330007B681B68B3F850309BB21A46FB681B7849
:10434000DB00134406335B007A681268134403F5FC
:1043500080631B88C3F30902FB68DA61FB68DB69D1
:10436000002B19D0FB685B69002B15D07B6818689F
:10437000FB685969FB68DA88FB68DB699BB202F06D
:1043800040FBFB685A69FB68DB691A44FB685A61A9
:104390000021786804F00AF97B681B681C467B687A
:1043A0001B68B3F850309BB21C4404F20C431C460B
:1043B000FB681B69002B0ED123889BB223F4F843C2
:1043C0009BB2238023889BB26FEA43436FEA534337
:1043D0009BB223802DE0FB681B693E2B12D8FB6843
:1043E0001B695B08BB61FB681B6903F00103002BC1
:1043F00002D0BB690133BB61BB699BB29B029BB21C
:10440000238016E0FB681B695B09BB61FB681B69C5
:1044100003F01F03002B02D1BB69013BBB61BB69E9
:104420009BB29B029BB26FEA43436FEA53439BB23A
:1044300023807B681B681B889BB223F4804323F096
:1044400070039CB284F480539CB284F400539CB2F9
:104450007B681A68A24B23439BB2138032E17B68CE
:104460001B681A467B7D9B0013441B887B82B7F92F
:104470001230002B80F2D1807B681B681A467B7D4E
:104480009B0013441B889AB240F68F7313409CB272
:104490007B681B681A467B7D9B00134444F08002B6
:1044A00092B21A807B7D5B0103F594737A681344A2
:1044B000FB60FB681B7B002B21D17B681B68B3F87A
:1044C00050309BB21A46FB681B78DB00134406335E
:1044D0005B007A681268134403F580631B88C3F39A
:1044E0000903FB83FB8B002B72D07B681868FB6889
:1044F0005969FB68DA88FB8B02F083FA68E07B6815
:104500001B681A46FB681B789B0013441B889BB2F0
:1045100003F48043002B21D07B681B68B3F8503034
:104520009BB21A46FB681B78DB00134402335B0026
:104530007A681268134403F580631B88C3F3090388
:10454000FB83FB8B002B2AD07B681868FB685969BA
:10455000FB681A89FB8B02F054FA20E07B681B6829
:10456000B3F850309BB21A46FB681B78DB0013444B
:1045700006335B007A681268134403F580631B8876
:10458000C3F30903FB83FB8B002B08D07B681868FF
:10459000FB685969FB685A89FB8B02F032FA7B6829
:1045A0001B681A46FB681B789B0013441B889BB250
:1045B00023F4E04323F070039CB27B681B681A4627
:1045C000FB681B789B001A44464B23439BB2138025
:1045D000FB68DA69FB8B1A44FB68DA61FB685A698D
:1045E000FB8B1A44FB685A61FB689B69002B04D063
:1045F000FA8BFB681B699A4206D2FB681B78194646
:10460000786803F0D3FF08E0FB681978FB685A6903
:10461000FB689B697868FFF79DFC7B8A03F0800349
:10462000002B4FD07B7D5B0128337A681344FB60FD
:104630007B681B681A467B7D9B0013441B889BB2DA
:1046400023F4E14323F070039CB27B681B681A4695
:104650007B7D9B001A446FEA44436FEA53439BB24D
:1046600013807B681B68B3F850309BB21A46FB6816
:104670001B78DB00134402335B007A681268134432
:1046800003F580631B88C3F30902FB68DA61FB68EA
:104690005A69FB68DB691A44FB685A61FB689B69CD
:1046A000002B06D1FB681B781946786803F096FF4B
:1046B00008E0FB681978FB685A69FB689B697868B1
:1046C000FFF796FC7B681B68B3F844309BB21BB2C3
:1046D000002BFFF674AD002318462437BD4690BD6D
:1046E0008080FFFFC080FFFF80B487B000AFF8601C
:1046F0007B600B467B8113463B817B8903F0800303
:104700009BB2002B08D07B8903F007035B012833A1
:10471000FA6813447B6106E07B895B0103F59473BF
:10472000FA6813447B613B89002B07D17B69002227
:104730001A737B689AB27B69DA800BE07B6901228D
:104740001A737B689AB27B691A817B681B0C9AB2D8
:104750007B695A81002318461C37BD4680BC7047D0
:1047600080B586B000AF78607B68002B01D1012353
:104770006CE27B681B6803F00103002B00F087806C
:10478000924B5B6803F00C03042B0CD08F4B5B68DF
:1047900003F00C03082B12D18C4B5B6803F48033BD
:1047A000B3F5803F0BD1894B1B6803F40033002B1A
:1047B0006CD07B685B68002B68D1012346E27B6884
:1047C0005B68B3F5803F06D1804B1B687F4A43F49A
:1047D000803313602EE07B685B68002B0CD17B4B31
:1047E0001B687A4A23F480331360784B1B68774A3E
:1047F00023F4802313601DE07B685B68B3F5A02F72
:104800000CD1724B1B68714A43F4802313606F4BC9
:104810001B686E4A43F4803313600BE06B4B1B68DC
:104820006A4A23F480331360684B1B68674A23F499
:10483000802313607B685B68002B13D0FDF78CFE30
:10484000386108E0FDF788FE02463B69D31A642B05
:1048500001D90323FAE15D4B1B6803F40033002BFD
:10486000F0D014E0FDF778FE386108E0FDF774FE43
:1048700002463B69D31A642B01D90323E6E1534B6B
:104880001B6803F40033002BF0D100E000BF7B680D
:104890001B6803F00203002B63D04C4B5B6803F0F2
:1048A0000C03002B0BD0494B5B6803F00C03082B67
:1048B0001CD1464B5B6803F48033002B16D1434B6D
:1048C0001B6803F00203002B05D07B681B69012BDA
:1048D00001D00123BAE13D4B1B6823F0F8027B684D
:1048E0005B69DB00394913430B603AE07B681B6965
:1048F000002B20D0364B01221A60FDF72DFE3861C7
:1049000008E0FDF729FE02463B69D31A022B01D9C4
:1049100003239BE12D4B1B6803F00203002BF0D017
:104920002A4B1B6823F0F8027B685B69DB00274990
:1049300013430B6015E0264B00221A60FDF70CFEB6
:10494000386108E0FDF708FE02463B69D31A022BE6
:1049500001D903237AE11D4B1B6803F00203002BEE
:10496000F0D17B681B6803F00803002B3AD07B680A
:104970009B69002B19D0174B01221A60FDF7ECFD43
:10498000386108E0FDF7E8FD02463B69D31A022BC7
:1049900001D903235AE10D4B5B6A03F00203002B9C
:1049A000F0D0012000F0C6FA1CE00A4B00221A6089
:1049B000FDF7D2FD38610FE0FDF7CEFD02463B6901
:1049C000D31A022B08D9032340E100BF0010024094
:1049D00000004242800442429E4B5B6A03F00203A5
:1049E000002BE9D17B681B6803F00403002B00F067
:1049F000A6800023FB75974BDB6903F08053002BE7
:104A00000DD1944BDB69934A43F08053D361914BB2
:104A1000DB6903F08053BB60BB680123FB758E4BE1
:104A20001B6803F48073002B18D18B4B1B688A4AD8
:104A300043F480731360FDF78FFD386108E0FDF7E4
:104A40008BFD02463B69D31A642B01D90323FDE099
:104A5000814B1B6803F48073002BF0D07B68DB680C
:104A6000012B06D17B4B1B6A7A4A43F00103136288
:104A70002DE07B68DB68002B0CD1764B1B6A754AF6
:104A800023F001031362734B1B6A724A23F0040381
:104A900013621CE07B68DB68052B0CD16D4B1B6A35
:104AA0006C4A43F0040313626A4B1B6A694A43F081
:104AB000010313620BE0674B1B6A664A23F0010394
:104AC0001362644B1B6A634A23F0040313627B681E
:104AD000DB68002B15D0FDF73FFD38610AE0FDF7DC
:104AE0003BFD02463B69D31A41F28832934201D919
:104AF0000323ABE0574B1B6A03F00203002BEED0FD
:104B000014E0FDF729FD38610AE0FDF725FD0246B6
:104B10003B69D31A41F28832934201D9032395E0CD
:104B20004C4B1B6A03F00203002BEED1FB7D012BE3
:104B300005D1484BDB69474A23F08053D3617B683A
:104B4000DB69002B00F08180424B5B6803F00C03B3
:104B5000082B61D07B68DB69022B46D13F4B0022DA
:104B60001A60FDF7F9FC386108E0FDF7F5FC024634
:104B70003B69D31A022B01D9032367E0354B1B682D
:104B800003F00073002BF0D17B681B6AB3F5803F04
:104B900008D1304B5B6823F400327B689B682D4959
:104BA00013434B602B4B5B6823F474127B68196AC8
:104BB0007B685B6A0B43274913434B60274B0122F9
:104BC0001A60FDF7C9FC386108E0FDF7C5FC024634
:104BD0003B69D31A022B01D9032337E01D4B1B6815
:104BE00003F00073002BF0D02FE01C4B00221A6062
:104BF000FDF7B2FC386108E0FDF7AEFC02463B6908
:104C0000D31A022B01D9032320E0124B1B6803F0B7
:104C10000073002BF0D118E07B68DB69012B01D118
:104C2000012313E00B4B5B68FB60FB6803F48032ED
:104C30007B681B6A9A4206D1FB6803F470127B689A
:104C40005B6A9A4201D0012300E00023184618371E
:104C5000BD4680BD0010024000700040600042422E
:104C600080B584B000AF786039607B68002B01D1DB
:104C70000123D0E06A4B1B6803F007033A689A42AD
:104C800010D9674B1B6823F0070265493B68134343
:104C90000B60634B1B6803F007033A689A4201D02C
:104CA0000123B8E07B681B6803F00203002B20D0CF
:104CB0007B681B6803F00403002B05D0594B5B682D
:104CC000584A43F4E06353607B681B6803F00803B1
:104CD000002B05D0534B5B68524A43F4605353603A
:104CE000504B5B6823F0F0027B689B684D4913438F
:104CF0004B607B681B6803F00103002B40D07B688E
:104D00005B68012B07D1474B1B6803F40033002B72
:104D100015D101237FE07B685B68022B07D1414BF3
:104D20001B6803F00073002B09D1012373E03D4B96
:104D30001B6803F00203002B01D101236BE0394B08
:104D40005B6823F003027B685B68364913434B6062
:104D5000FDF702FCF8600AE0FDF7FEFB0246FB6887
:104D6000D31A41F28832934201D9032353E02D4BE9
:104D70005B6803F00C027B685B689B009A42EBD196
:104D8000274B1B6803F007033A689A4210D2244B62
:104D90001B6823F0070222493B6813430B60204B3A
:104DA0001B6803F007033A689A4201D0012332E0FE
:104DB0007B681B6803F00403002B08D0194B5B6869
:104DC00023F4E0627B68DB68164913434B607B6821
:104DD0001B6803F00803002B09D0124B5B6823F417
:104DE00060527B681B69DB000E4913434B6000F087
:104DF00021F801460B4B5B681B0903F00F030A4ABD
:104E0000D35C21FA03F3094A1360094B1B68184667
:104E1000FDF760FB002318461037BD4680BD00BF7C
:104E20000020024000100240B4B80008000000203A
:104E30000400002090B48AB000AF2A4B3C1D0FCB79
:104E400084E80F00284B1B883B800023FB61002374
:104E5000BB6100237B6200237B6100233B62234B09
:104E60005B68FB61FB6903F00C03042B02D0082B89
:104E700003D02DE01E4B3B622DE0FB699B0C03F041
:104E80000F0307F12802134413F8243C7B61FB69EC
:104E900003F48033002B13D0144B5B685B0C03F0DE
:104EA000010307F12802134413F8283CBB617B6916
:104EB0000F4A02FB03F2BB69B2FBF3F37B6204E02F
:104EC0007B690C4A02FB03F37B627B6A3B6202E074
:104ED000074B3B6200BF3B6A18462837BD4690BC73
:104EE000704700BF58B8000868B8000800100240BA
:104EF00000127A0000093D0080B400AF024B1B682D
:104F00001846BD4680BC70470000002080B500AF49
:104F1000FFF7F2FF0146054B5B681B0A03F007032E
:104F2000034AD35C21FA03F3184680BD0010024007
:104F3000C4B8000880B485B000AF78600A4B1B6825
:104F40000A4AA2FB03235B0A7A6802FB03F3FB60B5
:104F500000BFFB685A1EFA60002BF9D100BF14375E
:104F6000BD4680BC704700BF00000020D34D6210DA
:104F700080B586B000AF786000233B610023FB6002
:104F80007B681B6803F00103002B7DD00023FB75B9
:104F90004F4BDB6903F08053002B0DD14C4BDB6989
:104FA0004B4A43F08053D361494BDB6903F0805394
:104FB000BB60BB680123FB75464B1B6803F4807321
:104FC000002B18D1434B1B68424A43F48073136093
:104FD000FDF7C2FA386108E0FDF7BEFA02463B6908
:104FE000D31A642B01D903236DE03A4B1B6803F4F9
:104FF0008073002BF0D0364B1B6A03F44073FB60C8
:10500000FB68002B2ED07B685B6803F44073FA6862
:105010009A4227D02E4B1B6A23F44073FB602E4B21
:1050200001221A602C4B00221A60294AFB68136285
:10503000FB6803F00103002B14D0FDF78DFA3861F3
:105040000AE0FDF789FA02463B69D31A41F2883239
:10505000934201D9032336E01D4B1B6A03F0020380
:10506000002BEED01A4B1B6A23F440727B685B68FE
:10507000174913430B62FB7D012B05D1144BDB69F0
:10508000134A23F08053D3617B681B6803F002034B
:10509000002B08D00E4B5B6823F440427B689B6872
:1050A0000B4913434B607B681B6803F01003002B14
:1050B00008D0074B5B6823F480027B68DB680449F7
:1050C00013434B60002318461837BD4680BD00BF10
:1050D00000100240007000404004424280B582B09F
:1050E00000AF78607B68002B01D101231DE07B6855
:1050F00093F83D30DBB2002B06D17B68002283F8A9
:105100003C207868FDF798F87B68022283F83D2000
:105110007B681A687B6804331946104600F018FA59
:105120007B68012283F83D20002318460837BD46DE
:1051300080BD80B485B000AF78607B681B68DA689A
:105140007B681B6842F00102DA607B681B689B6821
:1051500003F00703FB60FB68062B07D07B681B6826
:105160001A687B681B6842F001021A600023184627
:105170001437BD4680BC704780B582B000AF786000
:105180007B681B681B6903F00203022B22D17B683A
:105190001B68DB6803F00203022B1BD17B681B68D2
:1051A0006FF002021A617B6801221A777B681B6824
:1051B0009B6903F00303002B03D0786800F0ADF97E
:1051C00005E0786800F0A0F9786800F0AFF97B6836
:1051D00000221A777B681B681B6903F00403042B09
:1051E00022D17B681B68DB6803F00403042B1BD10E
:1051F0007B681B686FF004021A617B6802221A77D1
:105200007B681B689B6903F44073002B03D07868AC
:1052100000F083F905E0786800F076F9786800F02E
:1052200085F97B6800221A777B681B681B6903F08D
:105230000803082B22D17B681B68DB6803F0080396
:10524000082B1BD17B681B686FF008021A617B6812
:1052500004221A777B681B68DB6903F00303002BC9
:1052600003D0786800F059F905E0786800F04CF94F
:10527000786800F05BF97B6800221A777B681B680E
:105280001B6903F01003102B22D17B681B68DB68BD
:1052900003F01003102B1BD17B681B686FF010020A
:1052A0001A617B6808221A777B681B68DB6903F444
:1052B0004073002B03D0786800F02FF905E0786880
:1052C00000F022F9786800F031F97B6800221A7743
:1052D0007B681B681B6903F00103012B0ED17B68FF
:1052E0001B68DB6803F00103012B07D17B681B6897
:1052F0006FF001021A61786800F0FDF87B681B68A6
:105300001B6903F08003802B0ED17B681B68DB6870
:1053100003F08003802B07D17B681B686FF080024D
:105320001A61786800F059FA7B681B681B6903F002
:105330004003402B0ED17B681B68DB6803F0400301
:10534000402B07D17B681B686FF040021A617868B8
:1053500000F0F5F87B681B681B6903F02003202B25
:105360000ED17B681B68DB6803F02003202B07D17C
:105370007B681B686FF020021A61786800F024FADD
:1053800000BF0837BD4680BD80B584B000AF7860EF
:1053900039607B6893F83C30012B01D10223A6E0F1
:1053A0007B68012283F83C207B68022283F83D2041
:1053B0007B681B689B68FB60FB6823F07703FB60DE
:1053C000FB6823F47F43FB607B681B68FA689A6084
:1053D0003B681B68402B67D0402B0BD8102B73D039
:1053E000102B02D8002B6FD078E0202B6CD0302B04
:1053F0006AD073E0702B0DD0702B04D8502B33D0B3
:10540000602B41D06AE0B3F5805F66D0B3F5005FF2
:1054100017D063E07B6818683B6899683B685A68F6
:105420003B68DB6800F06DF97B681B689B68FB607C
:10543000FB6843F07703FB607B681B68FA689A603F
:105440004CE07B6818683B6899683B685A683B6821
:10545000DB6800F056F97B681B689A687B681B68FC
:1054600042F480429A6039E07B6818683B6859686A
:105470003B68DB681A4600F0CDF87B681B6850215A
:10548000184600F024F929E07B6818683B685968E1
:105490003B68DB681A4600F0EBF87B681B6860210C
:1054A000184600F014F919E07B6818683B685968E1
:1054B0003B68DB681A4600F0ADF87B681B6840214A
:1054C000184600F004F909E07B681A683B681B681D
:1054D0001946104600F0FBF800E000BF7B6801228F
:1054E00083F83D207B68002283F83C200023184687
:1054F0001037BD4680BD80B483B000AF786000BF78
:105500000C37BD4680BC704780B483B000AF786074
:1055100000BF0C37BD4680BC704780B483B000AF7D
:10552000786000BF0C37BD4680BC704780B483B044
:1055300000AF786000BF0C37BD4680BC704780B4B8
:1055400083B000AF786000BF0C37BD4680BC7047A9
:1055500080B485B000AF786039607B681B68FB6001
:105560007B68294A93420BD07B68B3F1804F07D008
:105570007B68264A934203D07B68254A934208D130
:10558000FB6823F07003FB603B685B68FA681343B9
:10559000FB607B681C4A93420BD07B68B3F1804F61
:1055A00007D07B68194A934203D07B68184A93421C
:1055B00008D1FB6823F44073FB603B68DB68FA6842
:1055C0001343FB60FB6823F080023B685B69134375
:1055D000FB607B68FA681A603B689A687B68DA62ED
:1055E0003B681A687B689A627B68074A934203D1DA
:1055F0003B681A697B681A637B6801225A6100BFA5
:105600001437BD4680BC7047002C014000040040A8
:105610000008004080B487B000AFF860B9607A60DD
:10562000FB681B6A7B61FB681B6A23F00102FB6855
:105630001A62FB689B693B613B6923F0F0033B61A5
:105640007B681B013A6913433B617B6923F00A03C2
:105650007B617A69BB6813437B61FB683A699A6135
:10566000FB687A691A6200BF1C37BD4680BC704770
:1056700080B487B000AFF860B9607A60FB681B6ADD
:1056800023F01002FB681A62FB689B697B61FB6870
:105690001B6A3B617B6923F470437B617B681B035E
:1056A0007A6913437B613B6923F0A0033B61BB68CC
:1056B0001B013A6913433B61FB687A699A61FB6895
:1056C0003A691A6200BF1C37BD4680BC704780B47F
:1056D00085B000AF786039607B689B68FB60FB68D1
:1056E00023F07003FB603A68FB68134343F0070341
:1056F000FB607B68FA689A6000BF1437BD4680BCC7
:10570000704780B487B000AFF860B9607A603B60E2
:10571000FB689B687B617B6923F47F437B613B680B
:105720001A027B681A43BB6813437A6913437B618F
:10573000FB687A699A6000BF1C37BD4680BC704721
:1057400080B485B000AF786039607B6893F83C30F6
:10575000012B01D1022332E07B68012283F83C2037
:105760007B68022283F83D207B681B685B68FB60D6
:105770007B681B689B68BB60FB6823F07003FB6061
:105780003B681B68FA681343FB60BB6823F0800327
:10579000BB603B685B68BA681343BB607B681B688F
:1057A000FA685A607B681B68BA689A607B68012255
:1057B00083F83D207B68002283F83C2000231846B4
:1057C0001437BD4680BC704780B483B000AF7860AA
:1057D00000BF0C37BD4680BC704780B483B000AFBB
:1057E000786000BF0C37BD4680BC704784B080B481
:1057F00083B000AF786007F1140080E80E0000234A
:1058000018460C37BD4680BC04B0704780B485B0E4
:1058100000AF78604FF43F43FB817B68B3F84030C2
:105820009AB2FB8913439AB27B68A3F84020002305
:1058300018461437BD4680BC704780B485B000AFB1
:1058400078604FF43F43FB817B68B3F840309BB2F4
:105850001AB2B7F90E30DB431BB213401BB29AB237
:105860007B68A3F84020002318461437BD4680BC4F
:10587000704780B483B000AF78600B46FB700023A4
:1058800018460C37BD4680BC704784B080B582B0E6
:1058900000AF786007F1140080E80E007B680122F9
:1058A000A3F840207B680022A3F840207B680022F8
:1058B000A3F844207B680022A3F850207868FFF703
:1058C000A5FF002318460837BD46BDE8804004B058
:1058D0007047000090B484B000AF78603960002356
:1058E000FB737A683B681B789B0013441B889BB250
:1058F00023F4EC4323F07003BB813B68DB78032B7C
:1059000019D801A252F823F0195900082D5900089E
:105910003D59000823590008BB8943F40073BB813B
:105920000DE0BB8943F4C063BB8108E0BB8943F44D
:105930008063BB8103E00123FB7300E000BF7A6852
:105940003B681B789B001A44BB8943F07F4343F4B8
:105950007F0343F4004343F080039BB213807A68D3
:105960003B681B789B0013441B889BB223F4E043E5
:1059700023F070039AB23B681B789BB213439CB22E
:105980007A683B681B789B001A448A4B23439BB27E
:1059900013803B681B7B002B40F012813B685B78D7
:1059A000002B67D07C687B68B3F850309BB21C44F6
:1059B0003B681B781B01234403F580631C463B684E
:1059C000DB885B089BB25B009BB223807A683B68F4
:1059D0001B789B0013441B889CB2234603F04003B2
:1059E000002B14D07A683B681B789B0013441B88FB
:1059F0009BB223F4E04323F070039CB27A683B68C7
:105A00001B789B001A446C4B23439BB213803B686A
:105A1000DB78012B18D07A683B681B789B00134415
:105A20001B889BB223F4E04323F040039CB284F034
:105A300020039CB27A683B681B789B001A445D4B3C
:105A400023439BB213802BE27A683B681B789B0050
:105A500013441B889BB223F4E04323F040039CB221
:105A60007A683B681B789B001A44524B23439BB2D5
:105A7000138015E27C687B68B3F850309BB21C44FD
:105A80003B681B781B01234403F581631C463B687C
:105A9000DB885B089BB25B009BB223807C687B68E1
:105AA000B3F850309BB21C443B681B781B01234465
:105AB00003F20C431C463B681B69002B0ED1238864
:105AC0009BB223F4F8439BB2238023889BB26FEAF6
:105AD00043436FEA53439BB223802DE03B681B692D
